:10000000F86B0020ED1C0000BF640000D91C00004C
:10001000D91C0000D91C0000D91C0000D91C00000C
:10002000000000000000000000000000E9420000A5
:10003000D91C000000000000D91C0000D91C0000E1
:10004000E11E0000E11E0000E11E0000E11E0000B4
:10005000E11E0000E11E0000E11E0000E11E0000A4
:10006000E11E0000E11E0000E11E0000E11E000094
:10007000E11E0000E11E0000E11E0000E11E000084
:10008000E11E0000E11E0000E11E0000E11E000074
:10009000E11E0000E11E0000E11E0000E11E000064
:1000A000E11E0000E11E0000E11E0000E11E000054
:1000B0004F430000E11E0000E11E0000E11E0000B1
:1000C000E11E0000E11E0000E11E0000E11E000034
:1000D000E11E0000E11E0000E11E0000E11E000024
:1000E000E11E0000E11E0000E11E0000E11E000014
:1000F000E11E0000E11E0000E11E0000E11E000004
:10010000E11E0000E11E0000E11E0000E11E0000F3
:10011000E11E0000E11E0000E11E0000E11E0000E3
:10012000E11E0000E11E0000E11E0000E11E0000D3
:10013000E11E0000E11E0000E11E0000E11E0000C3
:10014000E11E0000E11E0000E11E0000E11E0000B3
:10015000E11E0000E11E0000454300003B4300009B
:10016000E11E0000E11E0000E11E0000E11E000093
:10017000E11E0000E11E0000E11E0000E11E000083
:10018000E11E0000E11E0000E11E0000E11E000073
:10019000E11E0000E11E0000E11E0000E11E000063
:1001A000E11E0000E11E0000E11E0000E11E000053
:1001B000E11E0000E11E0000E11E0000E11E000043
:1001C000E11E0000E11E0000E11E0000E11E000033
:1001D000E11E0000E11E0000E11E0000E11E000023
:1001E000E11E0000E11E0000E11E0000E11E000013
:1001F000E11E0000E11E0000E11E0000E11E000003
:10020000E11E0000E11E0000E11E0000E11E0000F2
:10021000E11E0000E11E0000E11E0000E11E0000E2
:10022000E11E0000E11E0000E11E0000E11E0000D2
:10023000E11E0000E11E0000E11E0000E11E0000C2
:10024000E11E0000E11E0000E11E0000E11E0000B2
:10025000E11E000027430000E11E0000E11E000037
:10026000E11E0000E11E00001D430000E11E000031
:10027000E11E0000E11E0000E11E0000E11E000082
:10028000E11E0000E11E0000E11E0000E11E000072
:10029000E11E0000E11E0000E11E0000E11E000062
:1002A000E11E0000E11E0000E11E0000E11E000052
:1002B000E11E0000E11E0000E11E0000E11E000042
:1002C000E11E0000E11E0000E11E0000E11E000032
:1002D000E11E0000E11E0000E11E0000E11E000022
:1002E000E11E0000E11E0000E11E0000E11E000012
:1002F000E11E0000E11E0000E11E0000E11E000002
:10030000E11E0000E11E0000E11E0000E11E0000F1
:10031000E11E0000E11E0000E11E0000E11E0000E1
:10032000E11E0000E11E0000E11E0000E11E0000D1
:10033000E11E0000E11E0000E11E0000E11E0000C1
:10034000E11E0000E11E0000E11E0000E11E0000B1
:10035000E11E0000E11E0000E11E0000E11E0000A1
:10036000E11E0000E11E0000E11E0000E11E000091
:10037000E11E0000E11E0000E11E0000E11E000081
:10038000E11E0000E11E0000E11E0000E11E000071
:10039000E11E0000E11E0000E11E0000E11E000061
:1003A000E11E0000E11E0000E11E0000E11E000051
:1003B000E11E0000E11E0000E11E0000E11E000041
:1003C000E11E0000E11E0000E11E0000E11E000031
:1003D000E11E000031430000E11E0000E11E0000AC
:1003E000E11E0000E11E0000E11E0000E11E000011
:1003F000E11E0000E11E0000E11E0000E11E000001
:10040000E11E0000E11E0000E11E0000E11E0000F0
:10041000E11E0000E11E0000E11E0000E11E0000E0
:10042000E11E0000E11E0000E11E0000E11E0000D0
:10043000E11E0000E11E0000E11E0000E11E0000C0
:10044000E11E0000E11E0000E11E0000E11E0000B0
:10045000E11E000013430000E11E0000E11E000049
:10046000E11E0000E11E0000E11E0000E11E000090
:0C047000E11E0000E11E0000E11E000083
:10047C0053B94AB9002908BF00281CBF4FF0FF31FF
:10048C004FF0FF3000F00CB8ADF1080C6DE904CE64
:10049C0000F010F8DDF804E0DDE9022304B0704749
:1004AC00704700BF034613F8012B002AFBD1181A22
:1004BC00013870472DE9F04786468C460846089E61
:1004CC00154674461946002B40F0C1808542B2FA9D
:1004DC0082F245D94AB1C2F1200300FA02FC9540E0
:1004EC0094402EFA03F343EA0C0C4FEA154EA8B2D3
:1004FC00230CBCFBFEF80EFB18CC08FB00F943EAFE
:10050C000C43994528D9EB1808F1FF3704D29945CB
:10051C0002D9A8F102072B44A3EB0903A4B2B3FB45
:10052C00FEFC0EFB1C330CFB00F044EA0344A0421F
:10053C0014D92C190CF1FF3304D2A04202D9ACF11E
:10054C0002032C44241A43EA07401EB1D440002372
:10055C0034607360BDE8F0874746DDE76346F1E73A
:10056C0092BB431B01214FEA154EAFB2200CB3FBDB
:10057C00FEFC0EFB1C330CFB07F840EA03439845CA
:10058C0061D9EB180CF1FF3004D2984502D9ACF1CB
:10059C0002002B44A3EB0803A4B2B3FBFEFC0EFB3E
:1005AC001C330CFB07F744EA0344A7424DD92C1922
:1005BC000CF1FF3304D2A74202D9ACF102032C4454
:1005CC00E41B43EA0040C0E7C2F12003954094408D
:1005DC0020FA03F12EFA03F34FEA154E9040AFB216
:1005EC000343B1FBFEFC0EFB1C10190C0CFB07F8B3
:1005FC0041EA0041884522D969180CF1FF3004D238
:10060C00884502D9ACF102002944A1EB08019BB248
:10061C00B1FBFEFC0EFB1C110CFB07F743EA01437C
:10062C009F420ED9EB180CF1FF3104D29F4202D934
:10063C00ACF102012B44DB1B41EA004193E760461D
:10064C00E3E76146F7E76046A4E76346B8E7834211
:10065C0006D916B9002108467CE7C6E900E0F9E79F
:10066C00B3FA83F78FB9834201D3724508D8BEEB36
:10067C00020460EB030301209C461EB9002169E7CC
:10068C003846FAE7C6E9004CF8E7C7F1200CBB4046
:10069C000EFA07F522FA0CF42EFA0CF1BA401C43B0
:1006AC0020FA0CF3B8404FEA144901431FFA84FEB8
:1006BC00B3FBF9F809FB18300B0C08FB0EFA43EAF4
:1006CC0000439A4540D9E31808F1FF3004D29A450B
:1006DC0002D9A8F102002344A3EB0A0389B2B3FBAD
:1006EC00F9F809FB183308FB0EFE41EA03418E456D
:1006FC002CD9611808F1FF3304D28E4502D9A8F128
:10070C000203214443EA0040A1EB0E01A0FB029836
:10071C004145CE46434602D306D14D4504D201385D
:10072C00B9EB020E68EB0403002EA7D0B5EB0E025A
:10073C0061EB030101FA0CFC22FA07F3F9404CEAD5
:10074C000303C6E9003199E74046C5E74346D9E7BC
:10075C0002460249024805F068BA00BF9C910000AD
:10076C00747C000008B50B78012B07D0022B0BD042
:10077C0013B94868FFF7ECFF002008BD034A0321BA
:10078C00034805F001FEF7E7024AF8E7BC910000C8
:10079C00747C0000D491000008B50388262B21D16D
:1007AC00037A013B012B1DD803210F4A0F4805F09A
:1007BC00EBFD00F07DFC02460028FAD14FF48021BD
:1007CC004FF0005001F060FF4FF0FF32084BC3F8C0
:1007DC000026012203F59033C3F80025BFF34F8F99
:1007EC0020BFFDE708BD00BFEB910000747C00004A
:1007FC0000E010502DE9F047814BA2B000AF7B60B8
:10080C00804A0321804805F0BFFD03F089FC0246B5
:10081C0058B17E497C4805F008FA00F049FC0028E4
:10082C00FBD120BF40BF20BFF7E7794A03217648B0
:10083C0005F0AAFD632003F0BFFD024608B175491F
:10084C00E8E7754A0321704805F09EFD7348391D91
:10085C0003F05EFB024608B17149DBE71123092264
:10086C00704987F8543007F1540005F0DCF9044660
:10087C0038B102466C49644805F0D7F922466B49F9
:10088C00C8E71F236A4D6B4EAB80052333704FF4C2
:10089C00C863DFF8A4A1DFF8A4810146B081B0825F
:1008AC0032465046C5F80080B36005F0B4F90446F2
:1008BC0010B102466249DEE70321624A524807F151
:1008CC00100905F061FD21461022484606F0F5FCA2
:1008DC00FF233B705C4B2146302207F12000C7E917
:1008EC00023706F0EAFC022387F820300623214663
:1008FC00564C87F82430342207F1080307F15400D2
:10090C003B6506F0DAFC2378002B41D1002118223C
:10091C00796687F86810474806F0CFFC04233370DB
:10092C004FF4C863B36041F27073B3813B6907F154
:10093C00140243454FF01F0314BF404908F11F0137
:10094C0007F120003961BB8202F036FE00287FF4EB
:10095C0064AFBB693E4907F11C028B4208BF03F12F
:10096C001F011F2307F15400B961BB8302F024FE61
:10097C0000287FF452AF99E80F0085E80F002D4A4C
:10098C002B492D4805F047F9024678B1314941E72A
:10099C009AF8000005F043F9024608B12E4939E7F0
:1009AC0003212E4A184805F0EFFCAFE70146012061
:1009BC0005F037F9024608B129492BE763219AF86B
:1009CC00000005F02AF9034610B10246254921E73B
:1009DC00022222706C4688B06946234A4A61234A37
:1009EC008A614FF400728A83214A41F8102F06481D
:1009FC000A464FF4E65100F025FCA5460DE700BF72
:100A0C0071070000F5910000747C00001892000042
:100A1C003C9200004F9200006C920000684A00204B
:100A2C007E9200009F920000A99200002493000087
:100A3C00404A0020504A0020585400201A540020EC
:100A4C00D79200000F930000D308010059540020E6
:100A5C00DC530020A4930000549300007E9300000C
:100A6C00D2930000F5930000209400003294000013
:100A7C00030000012DE9F04F97B000AFD7F880B01C
:100A8C003B62CBF3C0030446894690F802A0FA629D
:100A9C00BB6141B9457800780AEB800020444D4594
:100AAC0017D8A0EB0409E378FB61BAF1000F02D070
:100ABC001BF0010F16D1FB6953BBFB6A1BB14946F6
:100ACC0020463A6A98474D4628465C37BD46BDE8F5
:100ADC00F08F461C3046FFF7E5FC0130304409F13D
:100AEC000109DCE7626823787A62FA6A9900796115
:100AFC0004EB8301002A40F001810E464FF0000800
:100B0C004D4601EB0A094E454CD101EB0A0610E0AB
:100B1C001BF0020FD1D023789A007A61626804EB43
:100B2C0083017A62FA6A002A77D14D46904601EB2E
:100B3C000A061BF0050F0CBF02230123FB62FB69A5
:100B4C0006EB430A0BF00203BB625645BCD016F809
:100B5C00021B16F8013C54F82390994B994502D38B
:100B6C00984B994536D3BB69002B40D0786A05F079
:100B7C00FBF800283BD0E9468AB06A46924B536199
:100B8C007B6AC2E906314FF4007313848F4B42F831
:100B9C00103F00234FF412518D4800F053FB023DDF
:100BAC00CD46D2E716F8013BF96254F82300FFF763
:100BBC0079FCD7F88430F96A01304BB1D7F888301A
:100BCC0098453EBFD7F8843023F8180008F1010887
:100BDC00054498E7BB6923B1786A05F0C5F800288D
:100BEC00C9D11BF0010F05D1FB6AED1AADE7BB6A49
:100BFC00002BAAD04846FFF755FCD7F8843053B1E8
:100C0C00D7F8883098453FBFD7F88420431C22F88A
:100C1C00183008F10108054497E7BAF1000F73D0BA
:100C2C001BF0040673D0D046002607F1480052464C
:100C3C003B61B96206F034FBB96A3B6901EB0A020D
:100C4C00BA62FA69F9695200FA60BA6A02EB4102B7
:100C5C003A610BF00202BA603A69B96A8A4258D119
:100C6C0062781BF0020F18BF00217A6208BF4FEAAE
:100C7C005801B2181BF0010FD2B240F09F801BF04C
:100C8C00040F14BF40460020BB616270A070E1707D
:100C9C0020463A6A7969FB6A9847051EFFF614AF3D
:100CAC00BB69414623707B6A3A6A6370FB6984F8BE
:100CBC0002A0E37007F14800FB6A9847B0F1000806
:100CCC00C0F2BA807B69A9EB0A01C91AFB683A6ABF
:100CDC00C91AD7E90A0398470028C0F2AF804FF031
:100CEC00000BA84408EB000507F1380AB34571D393
:100CFC0000213A6A0846FB6A9847E5E656464FF0EB
:100D0C00000807F1380092E75646D04696E7B04601
:100D1C0094E7BA6A12F8021B12F8015CBA6254F832
:100D2C002500274A904202D3264A90421ED3BA6924
:100D3C0032B1786A7B6005F017F87B6800288BD19C
:100D4C00BA6802BB08F1280207F1300C08F1010067
:100D5C00944407F1580208F1020852FA80F00CF89A
:100D6C00101C5FFA88F800F8105C75E7BA693AB1A4
:100D7C00786A7B6004F0F8FF7B6800287FF46CAF26
:100D8C001BF0010F09D006F1280207F13000711C8D
:100D9C00161806F8205CCEB25EE71BF0040F3FF489
:100DAC005BAF08F1280207F1300008F1010102EBFA
:100DBC00000808F8105C5FFA81F84DE7002063E743
:100DCC00B47300002CA300004D940000040000013B
:100DDC00AC7C00001BF80A3054F8239087F83730AD
:100DEC00D7F884302BB3D7F888309B4521D2D7F86D
:100DFC00843033F81B8001213A6AFB6A07F1370013
:100E0C00984700281ADB0544B8F1000F06D1484674
:100E1C00FFF748FB00F101081FFA88F841464846E5
:100E2C003A6AFB6A9847002808DB05440BF1010B72
:100E3C005CE74FF00008DEE7454645E6054643E62D
:100E4C00014B1B68184700BF90440020014B1860F1
:100E5C00704700BF9044002030B585B004460D4665
:100E6C0010220021684606F028FA02238DF8023081
:100E7C00044B2A4621466846019304F071FC05B0E8
:100E8C0030BD00BF4D0E00000122024BC3F80026FE
:100E9C00704700BF000012502DE9F04780462C48E7
:100EAC0005F0EFF9064670B92A4C054627464FF077
:100EBC000109DFF8A4A0544507D3B8F1000F02D004
:100ECC004FF00109FDB9BDE8F087237B83B123689E
:100EDC00DB680BB120469847636883F8069023685B
:100EEC001B6943B9636804222046196805F0DDF9D3
:100EFC0001361034DFE7204698470028F2D009FA73
:100F0C0006F31D43F4E7A84695FAA5F4B4FA84F465
:100F1C0009FA04F3260107EB04146FEA030A25EA25
:100F2C000305237B5BB1BB591B6963B93E447368F2
:100F3C0004222046196808EA0A0805F0B6F9002DC3
:100F4C00E2D14546BEE7204698470028F7D1EDE7A9
:100F5C00844A0020EC7C0000FC7C0000014B53F820
:100F6C00200070474C7D000008B5034608462BB1A5
:100F7C00044A136000F0ACFB002008BD6FF01500B4
:100F8C00FBE700BF944400200122014B1A7070470C
:100F9C005A54002010B50446064805F072F93CB1CD
:100FAC00054BD3E8EF1F0139C3E8E21F002AF8D143
:100FBC0010BD00BF7C4A0020804A00200020014662
:100FCC00034BD3E8EF0FC3E8E21F002AF9D17047B7
:100FDC007C4A002070B5FFF7F1FF0546074C084E20
:100FEC00B44200D370BD63685B792BB123685B6836
:100FFC0013B12946204698471034F1E7EC7C0000E9
:10100C00FC7C000010B5044C0449204604F0E5FFBC
:10101C00034B1C6010BD00BFEC440020387D000069
:10102C00744A002000230D4A10B513700C4A0D4968
:10103C0013600D4A0D481360FFF796FFFFF7E2FFB0
:10104C000B4B0C4918468B4200D310BD1A1A5C6826
:10105C001211013222711033F5E700BF5B540020EE
:10106C007C4A002040420F00804A00208B62000026
:10107C00EC7C0000FC7C00000146002200230148AF
:10108C0004F0C5BFEC440020014805F042B800BF95
:10109C00EC440020024B0146186805F08EB800BFE6
:1010AC00744A0020014805F0BEB800BFEC44002093
:1010BC0070B5274B1878002849D0FFF7E5FF054697
:1010CC00002841D1234B244C1B68002B19DD05F063
:1010DC00FCFE4FF47A75A0FB050647F6122200239E
:1010EC0005FB0161FFF7C4F9D4E90032C01A40F2E4
:1010FC00E93361EB0201984271F1000101D3FFF772
:10110C0069FFD4E9003213F57A7342F10002C4E9A5
:10111C000032BDE87040FFF7C5BF63685B7923B14F
:10112C002368294620461B6898471034B442F4D3F0
:10113C002846FFF7AFFF094BD3E8EF1F0139C3E88F
:10114C00E21F002ABED0F7E7054C064EEEE770BD55
:10115C005A5400207C4A002028490020804A002054
:10116C00EC7C0000FC7C000070B50D4D2B7863B955
:10117C000120FFF791FE0B4C0B4EB44206D3FFF748
:10118C0097FF0028FBD101232B7070BD63685B793E
:10119C001BB1236820469B6898471034EDE700BFCD
:1011AC005B540020EC7C0000FC7C000013B5114863
:1011BC0005F067F8104B1B7873B1EFF311844023E3
:1011CC0083F31288BFF36F8FFFF772FF84F31188DC
:1011DC00BFF36F8F02B010BD084B1B68002BF9D00A
:1011EC000028F7D1002200230548CDE9002303F0A5
:1011FC000DFCEFE7804A00205B540020784A002069
:10120C003049002010B5064B04461B689847214610
:10121C00A060044804F05EFFBDE81040FFF7C6BFB5
:10122C0094440020EC440020044A054B9B1AB1EB7B
:10123C00D30F34BF52F8310000207047747C00008B
:10124C00EC7C00002DE9F04F8FB0C1F34A2804AFBD
:10125C000D469146B8607B600C0DB8F1000F63D061
:10126C0000264FF0040B4FF00A0A07F11403C7F8DD
:10127C000C80C7E907667E620193CDF808B0CDF803
:10128C0000A007F11C0332464846F968FFF7F2FB51
:10129C00B0F5006F03461CD36C468AB0D9F8041025
:1012AC0004AB26481A46C3E9050140F2FF71D96127
:1012BC004FF400711984224B42F8103F4FF4125135
:1012CC0033462048FFF7BEFFA5462C37BD46BDE888
:1012DC00F08FC0F30A0804F11700184420F007003F
:1012EC0080083B60FFF7C8FE68F35325044690B1B5
:1012FC003B6800F11001C7E9083607F11403F961E6
:10130C00CDE900A3CDF808B048460F4AF96807F1BB
:10131C001C03FFF7AFFB68F353252A4620467B6876
:10132C00B96804F0E1FFD0E704F1170020F00700E2
:10133C008008FFF7A1FE0446EDE700BF0E95000004
:10134C0004000001BC7C0000C9620000406820B1B0
:10135C00034BC01A40F3CF0070474FF0FF3070477B
:10136C00747C00000EB403B503AB53F8042B014698
:10137C000448019300F062FF02B05DF804EB03B087
:10138C00704700BF09640000CA0605D48B064CBF29
:10139C0002490349FFF7E6BF704700BF4E950000B6
:1013AC004D9500002DE9F04F89B09B46149B9DF89C
:1013BC004CA00693159B04460593169B0D46904630
:1013CC00179E0493BAF1000F00F09D8006F4807311
:1013DC00079304F068FF06F00209024600283ED08D
:1013EC0020469149FFF7BEFF0746B9F1000F08D020
:1013FC0016F0440F35D12A4620468C49FFF7B2FF30
:10140C00074406F0010353B1894B204653F82A20B8
:10141C00884B8949002A08BF1A46FFF7A3FF06F438
:10142C008073002B49D006F00803002B63D1B8F170
:10143C00000F66D0424620468049FFF793FF0546D1
:10144C00069B3D44002B6DD1049B002B73D1F307FD
:10145C0000F1E48031462046FFF796FFD8E00746BE
:10146C00C3E7774B18680028CAD0764B4FF47A79CB
:10147C001B684FF03C0CB5FBF3F5B5FBF0F14FF4EA
:10148C00616300FB115509FB05F5B1FBF3F2B5FBEC
:10149C00F0FE03FB121100FB1E55B1FBFCF309FB24
:1014AC0005F5B5FBF0F50CFB131120460091CDE9C9
:1014BC0001E56549FFF756FFA2E706F00803EBB11B
:1014CC00624B204653F82A206149FFF74BFF054633
:1014DC00B8F1000F05D0424620465849FFF742FFAD
:1014EC000544BBF1000FABD05A4620465949FFF7D3
:1014FC0039FF0544A4E74FF0000BE1E706F00805BF
:10150C00E6E745469CE7BBF1010F069B06D1002B95
:10151C0064D1049B002B7BD000250CE0002BF8D071
:10152C004D485CE04D48069B22464D4904F0EBFBD0
:10153C00049B002B68D0DFF82C81DFF82C91049FE2
:10154C003146102F204628BF10274FF0000BFFF715
:10155C001BFF5D4545DC059B494620461A78FFF785
:10156C0001FF4FF0010B1BF0070F03D14146204642
:10157C00FFF7F8FE5F453BD9059B4946204613F81B
:10158C000B20FFF7EFFE0BF1010BBBF1100FEAD1B3
:10159C004FF0000B20463549FFF7E4FE5A46059BF9
:1015AC0020469A5CA2F120015F2928BF2E223049E7
:1015BC00FFF7D8FE0BF1010BBBF1100F1DD01BF088
:1015CC00070F03D141462046FFF7CCFE5F455A4634
:1015DC00E5D841462046FFF7C5FEEBE71F485546C8
:1015EC00A1E741462046FFF7BDFE0BF1010BB0E72A
:1015FC0020462049FFF7B6FEC5E7059B3B44059303
:10160C00049BDB1B04939AD1BAF1000F7FF41FAF3C
:10161C00204609B0BDE8F04F04F0E3BE2046054A71
:10162C000549FFF79FFE15E75595000059950000F9
:10163C005C7D000050950000799F00007E950000B5
:10164C008C4A0020884A002062950000707D0000C2
:10165C008295000088950000376400000964000042
:10166C0049220000959500008D950000979500008B
:10167C00999500009395000042F20F7373B58B425D
:10168C0028BF0B4605680446052168460D4A04F040
:10169C003BF806466368284604225B680A4904F056
:1016AC0092FE63683246694628465B6804F08BFEFE
:1016BC006368172228465B68044904F084FE02B074
:1016CC0070BD00BFC9960000B49500009C95000049
:1016DC0000210123064A904206D8064A01B901238B
:1016EC001360054B18607047012140085B00F2E75E
:1016FC0040420F00884A00208C4A0020014B0360B6
:10170C0000207047847D0000014804F054BB00BFEA
:10171C00C9950000014B002019607047A44A0020B5
:10172C000148FFF7A9BF00BFA07D000010B50C4613
:10173C000A4601230146024801F02AFE204610BD4C
:10174C00B07D000010B5064B0C461868FFF706FC80
:10175C002146BDE8104003460E220248184700BF40
:10176C00A44A0020A07D000000B591B02C220021DD
:10177C0005A805F0A2FD4FF0FF332422CDE9033379
:10178C00CDE901234FF0EB730B930B4B0521069323
:10179C00C8230022C6208DF83F10079300F02AFBC7
:1017AC00C62000F005FB002201A9044801F036FD1B
:1017BC0011B05DF804FB00BF5C540020B07D00004C
:1017CC002DE9F04706460C4600AF002936D0D1E98A
:1017DC000012E9468AB06D46A3684FF0050AA84688
:1017EC001F48C5E90723C5E9050148F810AF0023D8
:1017FC0042464FF421511B48FFF724FDD4E9031254
:10180C00CD466369AD461848C5E90723C5E905010E
:10181C00C5F810A0002342464FF421511148FFF7A0
:10182C0011FDCD46E3690121104A0E4804F0B5FDC7
:10183C00A36901210E4A0B4804F0AFFD012E07D11C
:10184C00EFF305830B4A31460648103B04F0A5FD27
:10185C002146304602F060FEBD46BDE8F08700BF71
:10186C001E960000DC7C00004D9600007C9600006B
:10187C008B960000B996000030BFFFF7FDBF00BF8C
:10188C0070B52A4C06460D4629482A4904F019FE23
:10189C00A36ADB0647D52648274904F012FE11201F
:1018AC00A36A1C0704D52248244904F00AFE12201E
:1018BC001E4CA36A990712D521491D4804F001FE5C
:1018CC00636BA26A120609D501211E4A184804F05E
:1018DC0064FD1EB1A36A23F08003A3621320134C92
:1018EC00A36ADE0704D51248174904F0EAFD142058
:1018FC00A36A9C0604D50E48144904F0E2FD152099
:10190C000A4B9A6AD10658BF9A6A9A6A920642BFE3
:10191C005A6A22F400525A629A6A42F0FF029A62A0
:10192C0000232B7070BD1020BAE700BF00ED00E063
:10193C00DC7C0000CC960000E296000015970000BD
:10194C0028970000409700005697000075970000FC
:10195C0010B5244C2449254804F0B3FDA36A990121
:10196C003ED52248224904F0ACFD1E20A36ADA01C0
:10197C0004D51E481F4904F0A4FD1F20194CA36A6E
:10198C00DB0204D519481C4904F09BFD0220A36A14
:10199C001C0304D51548194904F093FD2120114C62
:1019AC00A36A590304D51148154904F08AFD222075
:1019BC00A36A9A0304D50D48124904F082FD232032
:1019CC00084CA36ADB0304D508480F4904F079FDE1
:1019DC002420A36A6FEA03436FEA1343A36210BD8A
:1019EC001D20C3E700ED00E0A4970000DC7C0000A4
:1019FC00BC970000CF970000E997000013980000F7
:101A0C0031980000569800007098000070B5294C71
:101A1C0006460D462848294904F053FDA36AD9040B
:101A2C003CD52548264904F04CFD1720A36A1A051D
:101A3C0004D52148234904F044FD18201D4CA36A09
:101A4C009B0512D51C48204904F03BFDA36BA26AF0
:101A5C00100409D501211D4A174804F09EFC1EB143
:101A6C00A36A23F40043A3621920124CA36A5905FC
:101A7C0004D51148164904F024FD1A20A36ADA058E
:101A8C000ED50D48134904F01CFD1B20094A936A1E
:101A9C0043F47F43936200232B7070BD1620C5E77F
:101AAC00A36A9B04F2D504480B4904F00AFD1C20E0
:101ABC00ECE700BF00ED00E0DC7C00009B98000030
:101ACC00B198000015970000C2980000DB98000048
:101ADC00F09800000B990000759700002DE9F0417B
:101AEC008AB0654B0446D3F80480002600AFC8F3D7
:101AFC00080586F31188BFF36F8F02F07F43B3F1B3
:101B0C007F4F07D102F00C03082B12D15B495C48C4
:101B1C0004F0D7FC002634460023FB71EB1E092B86
:101B2C0000F28980DFE803F00A7F827B8787878752
:101B3C00878510074CBF0C460126EDE751495048EC
:101B4C0004F0BFFC00234C4DFB71EB6A9A0705D5E2
:101B5C004D494B4804F0B5FC002331E0EB6A002BF7
:101B6C0001DA4A49F5E7EB6A5B00F5D54849444888
:101B7C0004F0A7FC6B69A26943F480736B61BFF33B
:101B8C004F8FBFF36F8F6B6932F8022C23F4807385
:101B9C006B61BFF34F8FBFF36F8F4DF602739A4299
:101BAC0007D0AB6ADBB26BB30120F91DFFF768FEFF
:101BBC0037E023680121374A314804F0EEFB2368F3
:101BCC00FA79DAB907F1080504F1200C2A462068E5
:101BDC006168083403C264451546F7D17A6A002E51
:101BEC0045D0C2F3080121B96FEA52226FEA4222B2
:101BFC007A62184607F10801FFF7E2FD2837BD4667
:101C0C00BDE8F081AB6A13F47F4F04D00120F91DBD
:101C1C00FFF7FCFE05E0AB6AB3F5803F9CD3FFF702
:101C2C0097FE0346CCE70020F91DBFE70020F91D05
:101C3C00EEE719498DE7194A18F4F87FE8468AB09F
:101C4C00174B18BF13466A461649103DC2E90513D7
:101C5C004FF400731384144BD56142F8103F0023EA
:101C6C004FF411510648FFF7EDFAC54674E722F41C
:101C7C00FF7222F00102BBE700ED00E05199000079
:101C8C00DC7C00007C99000093990000B499000062
:101C9C00C2990000E1990000FD99000038990000FC
:101CAC0023990000219A000004000001064B5A6998
:101CBC0042F010025A615A6942F480625A615A69C0
:101CCC0022F008025A61704700ED00E0EFF3088043
:101CDC00EFF3098101B57246FFF700FF01BD00BFAC
:101CEC00002080F31488BFF36F8F002080F30A88E4
:101CFC0080F30B880F4880F3088800F0F1FB00207C
:101D0C000D490860BFF34F8F00F02CF8402080F392
:101D1C0011880A484FF40061401880F30988EFF3EA
:101D2C0014800221084380F31488BFF36F8F00F0F6
:101D3C0089F80000F86B002094ED00E0F8550020C5
:101D4C00002318460649D1F89020C2F3072293428B
:101D5C0000DB7047C1F89830C1F8A0000133F6E7FA
:101D6C0000ED00E010B572B6002484F31388FFF781
:101D7C00E7FF23464FF0FF300C4A03F120010133FB
:101D8C00102B42F82100F8D100234FF0FF30074A06
:101D9C0003F160010133102B42F82100F8D162B637
:101DAC00BFF34F8FBFF36F8F10BD00BF00E100E09A
:101DBC0000B2002807DB01234109034A00F01F0091
:101DCC00834042F82130704700E100E000B2002867
:101DDC000CDB01220649430900F01F00824020332E
:101DEC0041F82320BFF34F8FBFF36F8F704700BFB5
:101DFC0000E100E0D30748BF002100B258BF023118
:101E0C000028ACBF00F16040064A4FEA4113DBB238
:101E1C00ABBF00F5614000F00F0080F800331354A5
:101E2C00704700BF14ED00E0044B054A23F07F031C
:101E3C009360BFF34F8FBFF36F8F704700000000AC
:101E4C0000ED00E008B5FFF7EFFF074AD2F8883045
:101E5C0023F47003C2F8883002F0DEFB02F028FC99
:101E6C0000F028F802F0E4FB00ED00E0154680B528
:101E7C0006460C46002282F30B88084FA7F56068D3
:101E8C0088F30B8887F3098800200549884720468A
:101E9C0029461A46B04703488047FEE7F86B0020F6
:101EAC00DF640000ED6400001022014B1A617047E2
:101EBC0000ED00E00023402040F20F1210B5044C5E
:101ECC00E1180133934281F80003F9D110BD00BF32
:101EDC0000E100E008B5EFF30583064A103B02EB86
:101EEC00C30152F8330049688847BDE8084004F044
:101EFC00E7BA00BFFC7300000121024B024A034801
:101F0C0000F004B900FC032000440020B87D000060
:101F1C0010B50C7A0B6804F01F0223F01F031A4350
:101F2C00CB68640923F01F03054943EA440343F0DB
:101F3C000103C1F89800C1F89C20C1F8A03010BD75
:101F4C0000ED00E010B50A4BD3F89030C3F3072333
:101F5C00013B984208D901210346064A064804F081
:101F6C001CFA6FF0150010BDFFF7D2FFFBE700BFA6
:101F7C0000ED00E0389A0000CC7C00002DE9F04F19
:101F8C008946144606464FF00008514D85B0C845A9
:101F9C0027DAD6F804A0BAF1000F44D0BAF11F0F1B
:101FAC0017D91AF01F0F14D1D6F800B01BF01F0F61
:101FBC000FD1584604F09CFA07460AEB0B00013887
:101FCC0004F096FA874210D06FF01507414A3B4651
:101FDC0001E04346404A0121404804F0DEF96FF02D
:101FEC001504204605B0BDE8F08F17F1160FEDD0A3
:101FFC00BC42EBDDC5F89870D5F89C10C5F898700C
:10200C00D5F8A03021F01F0143F01F0BD6E90032A8
:10201C001A44994202F1FF3A1DD1D34507D13146FA
:10202C00F8B204F06EFA08F101080C36AFE731464D
:10203C00C5F89870D5F89C3022F01F0203F01F03EE
:10204C001343C5F89C30E0B204F05BFA10F1160FA4
:10205C00C5D0441CE7E7C5F89870D5F8A020013B23
:10206C0023F01F0302F01F021343D3453146E0B2A5
:10207C00C5F8A030E8D004F044FA10F1160FAED039
:10208C00C5F89870D5F89C209DF808300BF1FF3BF3
:10209C0062F304038DF80830D5F8A0309DF80820C1
:1020AC005B0863F347128DF80820D6E9003213441D
:1020BC00009323F01F035B44A3EB0A03013023F0CE
:1020CC001F036946C0B20393FFF73CFFBEE700BF96
:1020DC0000ED00E0819A00005E9A0000CC7C0000CC
:1020EC000522044BC3F89420BFF34F8FBFF36F8FBF
:1020FC00704700BF00ED00E0BFF35F8F0022024B82
:10210C00C3F89420704700BF00ED00E010B5034CFD
:10211C002278FFF733FF207010BD00BFEC55002074
:10212C00F0B54149414CD1F890302568C3F30723F1
:10213C009D4287B075D80020FFF7DEFF3C4BC1F8FD
:10214C00C030854216D13B4C01A82570FFF7D6FA5A
:10215C0000250646384FAE4213D100202378324971
:10216C00D1F89020C2F30722934254DBFFF7B8FF5B
:10217C0000202FE0616801EB0011FFF7C9FE013070
:10218C00DFE70199280101EB0513DA683A40B2F553
:10219C00001F21D0B2F5800F2BD0B2F5801F38D1A3
:1021AC005A689B680958013B22F01F000344012028
:1021BC00844623F01F0340EA4C10CDE902218DF830
:1021CC00100002A920780593FFF7BCFE00281DDA49
:1021DC006FF0150007B0F0BD5A689B680958013BB9
:1021EC0022F01F0003444FF0020C012023F01F03C8
:1021FC00E1E75A689B680958013B22F01F00034431
:10220C004FF0000C022023F01F03D4E72378013396
:10221C00237001359FE7C1F89830C1F8A000013355
:10222C009EE74FF0FF30D5E700ED00E0C47D0000E5
:10223C00AAFF4400EC5500200000F0FFF0B587B079
:10224C0007460E4614460021102268461D4605F02E
:10225C0034F802238DF80230054B2A462146684695
:10226C00CDE90476019303F07BFA07B0F0BD00BF13
:10227C004165000008B5024B1B689847002008BD5B
:10228C00A84A0020034B044A1860937843F00203D9
:10229C0093707047A84A00209844002008B506495E
:1022AC00064821F00701C1F1005202F57F3203F01C
:1022BC00EDFC002008BD00BFFF6B0020AC4A0020E5
:1022CC0008B5034A034B1A6000F018F8002008BD4B
:1022DC000020A107B444002048B1054B054A1B68F7
:1022EC00B3FBF2F35843044B43F001031847704718
:1022FC00B444002040420F00207D00000122024B1C
:10230C00C3F80424704700BF002008E010B5044C4B
:10231C002046FFF7B7FF2046FEF798FD002010BDC2
:10232C00312300000D2313B50A2804468DF806004E
:10233C008DF8073006D1012307481A460DF1070125
:10234C0001F026F801230DF106011A46024801F0AE
:10235C001FF8204602B010BDEC7D000070B514468D
:10236C001D4604F0F2F8A042A94113D30A4AD2E95F
:10237C000061A41B24F01F0365EB01009B1941EBCA
:10238C000001C2E90031640944EAC060BDE8704054
:10239C0002F06ABA70BD00BF7049002010B500226F
:1023AC000121E420FFF726FD154A0020D2F818374A
:1023BC0023F44033C2F8183700F06CFB114B044681
:1023CC00984208D10120104900F0F4FBA04205D03E
:1023DC000E4B984211D04FF0FF3010BD04F0B5F801
:1023EC0067220B4B20F01F00C3E90001094BC3E926
:1023FC000001094B00201A60EFE76FF00B00ECE7CF
:10240C0000200E500000AD0BB04400200200AD0BBC
:10241C007049002068490020B84A002008B504F033
:10242C0094F8054AD2E90032C01A61EB0201400966
:10243C0040EAC16008BD00BF7049002037B5431C9D
:10244C000CBF6FF0004420EAE07404F07EF80D4BF2
:10245C00D3E90025801A61EB05032021C4FB01039D
:10246C00402873F100042CBF20F01F0100235218E8
:10247C004FF0010145EB03030091034800F0FEFB14
:10248C0003B030BD70490020A8440020064BD3F89F
:10249C0040231C2A05D1D3F84403431E584258410B
:1024AC0070470020704700BF00C0FF0003689A0708
:1024BC000CD50368DB070DD50922074BC3F80C2597
:1024CC000F22C3F8042501221A60FEE7034B0360B8
:1024DC00EF3B0360704700BF00801050F000FA50D3
:1024EC0008B501233E4A3F48C2F800383E4AD2F8AC
:1024FC0040231C2A04BF3D4AC2F80C34FFF7D6FF18
:10250C000830FFF7D3FF0830FFF7D0FF0830FFF794
:10251C00CDFF00F5F470FFF7C9FF354AD2F88C30C7
:10252C0043F44063C2F88C300022D30003F57F03E0
:10253C0003F54043D3F8001401310AD0D3F800144A
:10254C0039B1D3F800140132D3F80434402A0B60AB
:10255C00EBD1234BD3F84024002A3DD0FFF796FF54
:10256C0048B1214BD3F83423224B9A429EBF1C4BCB
:10257C00214AC3F84026FFF789FF18B11F4B204AA8
:10258C00C3F8AC27FFF782FF48B13422144BC3F8D1
:10259C002426D3F83C2622F40022C3F83C26124B06
:1025AC00D3F840331C2B08D1164BD3F80026D20796
:1025BC0044BF6FF00102C3F800260323124A0C49F2
:1025CC00C2F81835D1F88C3043F44063C1F88C3024
:1025DC000023C2F8A03508BDC822C3F84024BDE7CB
:1025EC000000125000C50D5000C0FF000030055017
:1025FC0000ED00E0001D0A1840E0A91E00A00850E4
:10260C0078000A0400E0105000B0045030B50468A3
:10261C00ACB1B4FA84F30122C3F11F03DBB29A40CC
:10262C0024EA0202D0E8EF5FA54204D1C0E8EC2F07
:10263C00BCF1000FF6D1EAD102480B7030BD024854
:10264C00FCE700BF0000AD0B0200AD0B0D4B000111
:10265C00034452B1D3F808250A43C3F80825D3F82C
:10266C000C251143C3F80C157047D3F8082522EA42
:10267C000102C3F80825D3F80C2522EA0102C3F89D
:10268C000C25704700F00C50014B03F088BF00BFC5
:10269C00592600000E4B0246984211D003F5F82340
:1026AC0098420FD003F5805398420DD003F5805318
:1026BC0098420BD0074908488A4218BF002070473F
:1026CC0006487047064870470648704706487047EA
:1026DC0000A0045000401050BC4A0020DC4A0020EE
:1026EC00D44A0020CC4A0020C44A002010B50C4625
:1026FC00FFF7D0FF08B90C4810BDEFF3118340224F
:10270C0082F31288BFF36F8F02792AB183F3118899
:10271C00BFF36F8F0548EFE701220460027183F36A
:10272C001188BFF36F8FE6E70000AD0B0B00AD0B0C
:10273C00036803F01F025F2B02604FEA53129ABF2B
:10274C00024B53F822000020704700BFF47D0000BC
:10275C00034A4309D35C00F01F001844C0B2704711
:10276C00C29A0000F0B50646002487B0114F0191C3
:10277C0017F8012B06AB03EBD20313F8143C02F051
:10278C000702D34013F0010306D10134032CEFD11F
:10279C000023184607B0F0BD074A03AD07CA85E809
:1027AC00070055F824100A6A46F824200A62002A09
:1027BC00EBD0EEE7D29A0000007D000078232DE9E3
:1027CC00F04F6F4C0E460C1BB4FBF3F4D0F8141303
:1027DC00DFF8B0B1C9B28BB041F400315BF83420F2
:1027EC00009003F075FF8103054638D50023E70000
:1027FC000BEBC404CDE907330993636807A81946AA
:10280C000193FFF7AFFF3B1D03934FF0000A5E4BA4
:10281C000DF11C090293029A12F8013B0292039AE1
:10282C0002EBD3021BF8022003F0070322FA03F396
:10283C00DA071AD40AF1010ABAF1030F09F10409F3
:10284C00E9D14FF400310022009803F041FF0199C7
:10285C0007A8FFF787FF0028D7D125F400350124FE
:10286C00002D76D10BB0BDE8F08F484B5344049348
:10287C00D9F800100029DDD091FAA1F1B1FA81F15B
:10288C00049B1C7841EA44142046FFF761FF083092
:10289C0036F81080C8084FEA98030593012319F8FD
:1028AC00002001F0070103FA01F122EA010209F804
:1028BC00002006A80694FFF73BFF069A059B2032E2
:1028CC0050F82220C8F382075B07B846C2F30142D6
:1028DC0023D53046D7B22146424603F0DAFE06A88D
:1028EC000694FFF725FF069B203350F82330C3F3E3
:1028FC0001439F4207D10021204603F0BBFE39461D
:10290C00204603F0B7FE06A80694FFF711FF01223C
:10291C00069B02FA03F30362AAE7022A0DD10321F4
:10292C00204603F0A7FE07F00503012BEBD142462E
:10293C002146304603F0ADFEE5E702212046059224
:10294C0003F098FE032FF2D0059A032ADBD1022F55
:10295C00ECE795FAA5F3B3FA83F3009904FA03F2C2
:10296C0025EA020503F5A27251F8222006EB430377
:10297C003046B3F86410C2F3014203F08AFE6FE7ED
:10298C00E44A0020007E0000D29A0000D29A000097
:10299C0001490248FFF712BFE44A002000A00D5085
:1029AC0001490248FFF70ABF5C4B002000C01050E1
:1029BC0010B50024037A0D49CA181B0103F1A0437A
:1029CC0003F5622392F85420C3F82C450C2303FB27
:1029DC0002130468DC6042681A610122007A1875DF
:1029EC008B68824013438B6010BD00BF00440020F5
:1029FC00074B027AD3F8101521F001010A43C3F8F2
:102A0C0010250268C3F8A4264268C3F8AC267047A8
:102A1C0000200E50012303FA00F010F0670F0AD0CB
:102A2C00064B5B68DB4303F067030342044B05482A
:102A3C0018BF184670470448704700BF0044002078
:102A4C000000AD0B0400AD0B0800AD0B2DE9F048F8
:102A5C00EFF31181402383F31288BFF36F8F4FF094
:102A6C00FF356FF04044094ED6E900BC5D4574EB70
:102A7C000C07F9D3CCF31303C0E900B381F311882D
:102A8C00BFF36F8F0248BDE8F08800BF40270E509F
:102A9C000000AD0BF0B53C4D85B02C78002C6FD1FF
:102AAC003A4A01AB07CA83E8070039491846D1F8FE
:102ABC00102522F00202C1F81025FFF799FF072319
:102ACC00672202F001012144013BCCB24FEA5202D1
:102ADC00F7D1052C56D119464FF0010C2A4E002483
:102AEC006720CFB204E00CFA02F220EA02000134B3
:102AFC0090FAA0F25FFA84FEBE45B2FA82F2F2D3EB
:102B0C000131327505292A4482F8547006F10C06FD
:102B1C00E5D1012100241F489A0801FA02F212F0B3
:102B2C00670F18BF1C500433302BF5D1E420FFF78E
:102B3C003FF9174B1849D3F8102503F5C07322F051
:102B4C000202C3F8902340F6FF72C3F8A8210022BA
:102B5C001A60A3F5807004338B420260F8D1012413
:102B6C000B4B0E4A1C660E4B5D201B68B3FBF2F33D
:102B7C0058430C4B234398470B482C7005B0F0BDC1
:102B8C000A48FBE70A48F9E7004400200C7D0000E6
:102B9C0000200E5000210E50B0210E5040420F006C
:102BAC00B4440020307D00000000AD0B0C00AD0BD8
:102BBC000100AD0B73B52A4C054663680E4603F055
:102BCC00010304F1140101A80193FFF71FFD254B2C
:102BDC0098423DD100233370636823F00103636096
:102BEC00A36843F00103A3601F4BD3F8102596078D
:102BFC0032D4D3F8102542F00202C3F81025C5B127
:102C0C00D3F8482712F0010202BFD3F8481741F05D
:102C1C000101C3F84817144BD3F84017D3F84417E5
:102C2C004C00F9D42AB9D3F8482722F00102C3F892
:102C3C0048270E4B0E4A1B68B3FBF2F30A4A03EB10
:102C4C0043135BB1D2F84017D2F84417490001D4B2
:102C5C0002B070BD013BF4E70648F9E70648F7E718
:102C6C00004400200000AD0B00200E50B4440020A6
:102C7C0040420F000C00AD0B0700AD0B2DE9F041ED
:102C8C000446007A1D46FFF7C5FE1E4B904698423F
:102C9C0006469DF8187031D12046FFF789FEEFF3F8
:102CAC001180402383F31288BFF36F8F227A164B67
:102CBC009200134400221A60217AC5F3130509010E
:102CCC0001F1A04101F56221C1F82085C1F824551C
:102CDC0080F31188BFF36F8F87B10123227A0B49E0
:102CEC0003FA02F2D1E8EF5F1543C1E8E05F002878
:102CFC00F8D1227A9340064AC2F824333046BDE814
:102D0C00F08100BF0000AD0B00210E508844002064
:102D1C0000200E50F7B5284B284CD3F82C6304F147
:102D2C0088070EB903B0F0BD96FAA6F00123B0FAED
:102D3C0080F08340DA43224926EA0306231893F8ED
:102D4C005450830019440C2303FB0543DB6873B315
:102D5C00D7E8EF3F03EA020CC7E8EECFBEF1000F55
:102D6C00F6D1C340DB0719D5020102F1A04202F5EE
:102D7C006222D2F82435D2F82025D1F800C0BCF15B
:102D8C00000FCED04FF0000CC1F800C00C2101FB9D
:102D9C00054529690091E9688847C2E705F10C03EC
:102DAC0004EBC30C54F83320DCF80430E5E70A6874
:102DBC00002AB6D00B60B4E700200E50004400206F
:102DCC0000210E50044B40EA0120C3F80005D3F853
:102DDC000024D207FBD5704700B004507FB5002506
:102DEC000C46C0F810511646D0F81021D0F800222D
:102DFC0022F02002C0F800220D4AC0F8082303F08C
:102E0C00C3FC8D600D6104F14C000A4903F0E4FC35
:102E1C0010222946684604F050FA042368468DF8BF
:102E2C0000300196D4E90013984704B070BD00BF80
:102E3C0020021800FF0F00FF5F2800F01F034FEA6D
:102E4C0050110BD8084A52F8212002EB8303D3F817
:102E5C008010064A0A40C3F88020704700222033B5
:102E6C0052F82330FFDE00BF107E0000F0F0FCFFB4
:102E7C002DE9F04F85B090F8048001905020684DFA
:102E8C000C4600FB0850416849B113F0020304D012
:102E9C00836B002B00F0B3800123009300E00091C2
:102EAC00502303FB0853DB6CD90600F1A8804FF0CC
:102EBC000109A3180293029BA34200F0AA8050239D
:102ECC0004F060420392019A1679126803FB0651D2
:102EDC008F6BDFB90399B1F1005F40F09E80EFF387
:102EEC00118A402181F31288BFF36F8F03FB065BBD
:102EFC00DBF84C10104601F0010103F013FC38B95B
:102F0C008AF31188BFF36F8F5023DCE70127E6E7C4
:102F1C00DBF84430002BBCBFD2F84437CBF844303C
:102F2C00A34657B1502000FB06502778D0E90E136A
:102F3C00CF54D0E90E1301EB030BBBF1000F03D000
:102F4C00C2F83CB7C2F840970023C2F86831D2F8F7
:102F5C006811C2F83031D2F83011C2F86C31D2F8A5
:102F6C006C310823C2F80035009BCBB14FF4805371
:102F7C00C2F80433C2F850908AF31188BFF36F8FF4
:102F8C00502000FB08525368002B40D1D36C1B0718
:102F9C003DD510466FF008014C3003F01DFC2EE0BF
:102FAC00C2F850908AF31188BFF36F8F502303FB44
:102FBC000653D96C01F00101104603F0B3FBD2F8B3
:102FCC004477D2F83C37E0B99B45F5D009B9C2F843
:102FDC005490144FEFF3118A402383F31288BFF3FC
:102FEC006F8F06EB8606104605EB061103F0FFFB10
:102FFC008AF31188BFF36F8F0A4B9F42C0D00A48E7
:10300C0008E09B45E2D1002FE0D1074FE2E7013405
:10301C0051E7044805B0BDE8F08F0448FAE700BF5B
:10302C00D44B00200000AD0B0800AD0B0400AD0B21
:10303C005F284FEA501208D8054B00F01F0053F8D8
:10304C002220012383405360704700235B60FFDE26
:10305C00107E00005F2800F01F034FEA50110DD8BE
:10306C00094A52F8212002EB8302D2F88010074B58
:10307C000B4043F00303C2F880307047002220332A
:10308C0052F82330FFDE00BF107E0000F0F0FCFF92
:10309C002DE9F74F91F8393005460C460679A3B95E
:1030AC005022484B02FB0633DA6C42F00072DA64B1
:1030BC000868471C04D0FFF7BBFF0868FFF7CAFF7E
:1030CC006068411C01D0FFF7B7FE94F82C30012B3F
:1030DC0017D194F83930A3B950223A4B02FB06337E
:1030EC00DA6C42F00062DA64E068421C01D0FFF74F
:1030FC00A3FEA068431C04D0FFF79AFFA068FFF75B
:10310C00A9FF94F838303BB950222E4B02FB063302
:10311C00DA6C42F08072DA64A368268EB4F832A0BE
:10312C000093E36894F82D9094F82E10A08E94F8E8
:10313C002C70E28EDFF890B0019346EA0A062B68F9
:10314C0094F83880D4E900EC3043A46A41EA0901D0
:10315C005B4542EA000241EA070108BFE4080A4362
:10316C00C3F82445C3F86C25B8F1000F0CD1012F1E
:10317C0008BF009AC3F804E6C3F80CC602BFC3F834
:10318C001026019AC3F8082600232868C0F84C3191
:10319C00D0F84C21C0F86831D0F86821C0F814314F
:1031AC00D0F81421C0F82431D0F82421C0F83031E3
:1031BC00D0F83031C0F3083003B0BDE8F04FFEF763
:1031CC00F7BD00BFD44B002000A0045001490248B9
:1031DC0003F057BBD44B002000600C50014902484F
:1031EC0003F04FBB244C002000700C5001490248E6
:1031FC0003F047BB744C002000800C50014902487E
:10320C0003F03FBBC44C0020004010500149024861
:10321C0003F037BB144D002000A004502DE9F04FF3
:10322C00914650220779534C02FB07FB04EB0B0A27
:10323C009AF8483085B005460E460193002B40F0B5
:10324C0081804D49006851F82710FFF74FFA4B4920
:10325C00804688424FF05002019B79D107EB8700E2
:10326C00194604EB001004F028F8336944F80B30CD
:10327C007369CAF83830B26902B1013A502303FBC2
:10328C000743DA63326A042A81BFF2699A61002229
:10329C00DA612A68D2F8003243F48023C2F8003293
:1032AC00502303FB07440123C4F8049084F84830EE
:1032BC002C68D4F850213AB308226427C4F80025AE
:1032CC00E362D4F82431EBB9D4F81431D3B90A2021
:1032DC0003F063F9013FF4D10023C4F85031D4F862
:1032EC005021C4F84C31D4F84C21C4F82431D4F812
:1032FC002421C4F800353FB9286803F06AF9DFF8D7
:10330C00808021E00127E7E731462846FFF7C0FE21
:10331C00082200232C688DF80F30C4F800250DF11D
:10332C000F02C4F83C27C4F8403701230A26236552
:10333C006365D4F8303173B9012003F02EF9013EE6
:10334C00F7D1D9E7DFF83C80404605B0BDE8F08FF7
:10335C00DFF83480F8E70023C4F868319945D4F8D5
:10336C006821C4F80035094B08BF00232A68C2F84D
:10337C000433E9E7D44B00201C7E00000000AD0BA9
:10338C000100AD0B0C00AD0B0B00AD0B20021800B7
:10339C002DE9F04782460D461C46904690F804C035
:1033AC00002A77D04FF05009DFF824E1066809FBBA
:1033BC000CE9D9F8047067B95BB9D9F82C40002C2A
:1033CC006AD1C9F82C20FFF753FDC9F82C40BDE891
:1033DC00F087A00707D02346424629465046BDE851
:1033EC00F047FFF745BD05F06043B3F1005F4FF0C8
:1033FC00500303FB0CE321D09B6B002B4ED06107D9
:10340C004CD40122EFF31187402383F31288BFF3CE
:10341C006F8F502303FB0CE3D96AC1B9C3E90A5877
:10342C001AB1D96C41F00201D9640CEB8C0C30460A
:10343C000EEB0C1103F0E6F9264822E0DA6C12F0E0
:10344C000102DFD014F00402DCD02348BFE75A6B32
:10345C00E2B962071AD59A6A02F06042B2F1005FD3
:10346C0016D10A24DA6CC3E90C5842F01002DA6463
:10347C00D6F86C31A3B9012003F08FF8013CF7D1D9
:10348C00164887F31188BFF36F8FA0E71448F8E74D
:10349C001148F6E713489AE7114898E7124896E75F
:1034AC004FF08062DAF80030C3F80423D6F800320B
:1034BC0023F48023C6F800320023C6F86C31D6F80A
:1034CC006C31002DB8D0C6F83C57C6F84087B3E72E
:1034DC00D44B00200000AD0B0800AD0B0100AD0B70
:1034EC000B00AD0B0600AD0B0A00AD0B2DE9F04F38
:1034FC004FF0000A804691461E46554685B00E9CFC
:10350C00BDF83CB02788019198F804105FFA8AF254
:10351C00914203D8002D43D1002013E0D8F80010BD
:10352C0051F82200002203900DF10B0103A803F0C7
:10353C00D8FB034648B11E4801211E4A02F02DFF5C
:10354C006FF0150005B0BDE8F08F9DF80B2091458C
:10355C0023D1228802EB090125B159450DDD6FF00D
:10356C000600EFE702315945F9DC551C019BADB261
:10357C002580735522880132228022880DF10B019F
:10358C00324403A803F0ADFB03460028D3D1012538
:10359C0021889DF80B200A4422800AF1010AB3E726
:1035AC002288013AD21B92B2FF2AD8D8F255B3E73F
:1035BC00847C0000DD9A00002DE9FF47002316886B
:1035CC001380C37807460D461446002B30D0082EC6
:1035DC0040F2C18102A803F07EFB034638B1994A40
:1035EC000121994802F0D9FE6FF01500E0E00821A6
:1035FC002288DDF80900A9541B212288013292B2DD
:10360C002280A9542288013292B22280A918A85093
:10361C00BDF80D208A809DF808102288012988BFEA
:10362C000123063292B22280AB54238801332380CB
:10363C00BB780BB323880433B34200F28C8102A80D
:10364C0003F04BFB034608B1804AC9E703222388E9
:10365C00EA541922238801339BB22380EA5423882D
:10366C00BDF8082001339BB22380E918EA54120AF2
:10367C004A702388023323803A79A2B12388D91C5B
:10368C00B14200F268810221E954012123880133FF
:10369C009BB22380E95423880B449BB22380EA54C9
:1036AC0023880B442380BB6AB3B193F90020238891
:1036BC00D91CB14200F24F810221E9540A2123881E
:1036CC0001339BB22380E954238801339BB22380BE
:1036DC00EA542388013323803B7B002B5DD13B7D57
:1036EC0053B12B4607220321CDE9004607F1100008
:1036FC0003F0F9FA00285BD13B7F53B12B4615221E
:10370C001421CDE9004607F1180003F0ECFA00286B
:10371C004ED1FA6A002A4ED1D7F83080B8F1000F9A
:10372C0031D0B8F802302188981C8A1C0244B2426D
:10373C0000F21181FE2800F20E81FF2203336B543C
:10374C00238801339BB22380EA54238801339BB234
:10375C002380B8F80020E918EA54120A4A7020882D
:10376C00023080B22080B8F8022062B1D8F8041080
:10377C0000293FF439AF284403F092FD2388B8F8B0
:10378C0002201344238097F82430002B60D13B781F
:10379C00002B40F09D8000200AE02B4606220221DF
:1037AC00CDE9004607F1080003F09DFA002896D0F9
:1037BC0004B0BDE8F087B4F800C00CF10603B342C6
:1037CC0000F2CF80118805297FF60EAF6FF4486E9A
:1037DC0001EB0E034FF27D3E9BB273457FF604AFB7
:1037EC005388052B7FF600AF6FF44860181880B231
:1037FC0070457FF6F9AE4FF6FF70814202D09942C8
:10380C003FF6F2AE0523122105F80C302388013364
:10381C009BB22380E954238801339BB22380118807
:10382C00E818E954090A4170238802339BB22380BB
:10383C005288E918EA54120A4A702388023323800A
:10384C006AE700BF029B0000847C0000329B0000F2
:10385C003B6A002B00F082804FF000094FF0160AF3
:10386C0097F824305FFA89F2934290D9396A01EBC8
:10387C00C208B8F80230981CFE2872D8208803338E
:10388C002B54238801339BB2238005F803A0238893
:10389C0001339BB2238031F83220E918EA54120A22
:1038AC004A702088023080B22080B8F8022062B1C1
:1038BC00D8F8041000293FF497AE284403F0F0FC2C
:1038CC002388B8F802201344238009F10109C7E7C3
:1038DC003A88012A3FF488AE2288901CB0423AD82C
:1038EC00012B04D17B78023313449E4233D3023E26
:1038FC00B61AB6B202A92844ADF8086003F0EFF985
:10390C00034608B1184A6BE63978BDF8083002292D
:10391C0014D1B3421DD90821ADF80860BDF80830A8
:10392C00FE2B18D822880133AB542288013292B274
:10393C002280A9542288134423802CE77A7893425E
:10394C0001D8B34205D90129E5D1964228BF1646C4
:10395C00E1E70921E2E76FF0060029E76FF00D00BF
:10396C0026E70C2024E700BF5E9B0000024B1B687F
:10397C0003B11847704700BF644D002010B50648CE
:10398C0003F0CFF9034630B1BDE810400121034AE2
:10399C00034802F002BD10BD94910000A89B0000EA
:1039AC008C7C000010B5064903F0B9F9034630B120
:1039BC00BDE810400121034A034802F0EEBC10BDE3
:1039CC00D4440020DB9B00008C7C000030B50388C5
:1039DC000146102B858885B003D0122B18D005B06A
:1039EC0030BD02221F4B20481A7202681A604268CE
:1039FC005A60CB7B012BF2D101F1100003F093F94B
:103A0C000028ECD1284605B0BDE83040FFF7CABF0E
:103A1C0000F10804204603F086F960B100238868A1
:103A2C00C9688DF8043002ABADF8065003C301A889
:103A3C00FFF79CFFD3E70B4B1C7A14B1013C1C72B3
:103A4C00E0E702212B46094A094802F0A6FC0123B3
:103A5C00CDF80540CDF809408DF804300394ADF84D
:103A6C000650E4E7D4440020949100001D9C000013
:103A7C008C7C000010B50A4C618803F06EF903468B
:103A8C0028B1112804D1237943F00103237110BD0F
:103A9C000121BDE81040034A034802F07EBC00BF80
:103AAC00DE4400204B9C00008C7C000070B5038829
:103ABC0085883A2B86B041D010D8102B3CD0112BD6
:103ACC0032D0364A1379D90736D528466FF300031E
:103ADC00137106B0BDE87040FFF7CCBF552BF0D189
:103AEC002E4CC28863882188934228BF13468B4290
:103AFC0038BF0B46238023796FF300032371032116
:103B0C002B4627480092274A02F051FC2846218870
:103B1C0003F021F90646002833D001210346224A3E
:103B2C001F4802F03AFCCCE717221C4B1A805A8033
:103B3C001A796FF300021A7106B070BD174C4389E5
:103B4C006288934228BF1346227923806FF30002C8
:103B5C0022710321154A1248009502F028FC00231B
:103B6C00CDF81130CDF80D30059302238DF80C30C3
:103B7C00238803A8ADF80E50ADF81030FFF7F6FE11
:103B8C009FE723880321094A0548009502F00FFCA2
:103B9C00CDF81160CDF80D600596E6E7DE44002007
:103BAC008C7C0000A39C0000CA9C00007E9C000042
:103BBC00F0B52A4C87B0A3780546ADF81030E37801
:103BCC00274EADF812300023264F05930293ADF823
:103BDC000C30284602AA04A903F0C1F811280346A8
:103BEC0005D1237943F00103237107B0F0BD1328ED
:103BFC0030D1BDF80830BDF80A2053EA020109D1D2
:103C0C00BDF80C30002BF0D0174A0121154802F0FA
:103C1C00C4FBEAE7022100923846324602F0C7FBA9
:103C2C00BDF80830A278BDF80A10D21AE378D2B2E7
:103C3C005B1ADBB2E370ADF81230BDF80C30A27039
:103C4C00ADF81020002BC4D00121074A054802F022
:103C5C00A4FBBEE70028C8D0044AD6E7E444002001
:103C6C00579D00008C7C0000019D00009C9D000075
:103C7C002DE9F04184B003888588232B00AF4BD00D
:103C8C000ED8102B44D0112B38D0344A1379D907C5
:103C9C003ED56FF3000328461371FFF789FF37E019
:103CAC00242BF2D12D4C017A2279837A6E466FF354
:103CBC0000028AB0227121706A466370C2E907352E
:103CCC0005232748C2E9050142F8103F00234FF4B1
:103CDC0023512448FDF7B6FA0023C7F80530C7F87E
:103CEC000930FB6003233B712378B5463B72637844
:103CFC00381DFD807B72FFF739FEC6E71B22174B80
:103D0C001A705A709A70DA701A796FF300021A717D
:103D1C001037BD46BDE8F081E8468AB06A46047AA1
:103D2C00867A114BC2E90746C2E90535052342F8EC
:103D3C00103F00234FF423510A48FDF783FA1B2E42
:103D4C0028BF1B261B2C28BF1B24044BC54628460A
:103D5C009E70DC70FFF72CFF97E700BFE444002057
:103D6C00E99D00008C7C0000209E000037B51B4CA8
:103D7C0001A923880546ADF804309DF80430FF2BCB
:103D8C001CBF03F003038DF804309DF80530FF2BA6
:103D9C001CBF03F003038DF8053002F0E2FF03466D
:103DAC0028B1112805D1A37843F00103A37003B007
:103DBC0030BD13280BD10221094A0A4802F0E4FA5B
:103DCC000023284623706370FFF7D0FFEFE7012133
:103DDC00054A044802F0E1FAE9E700BFED5500207E
:103DEC00559E00008C7C0000929E0000F0B587B0C0
:103DFC0003880446212B858802AF59D00ED8102B8E
:103E0C0041D0112B3AD0394A9378D9073BD56FF36F
:103E1C00000328469370FFF7A9FF34E0222BF2D160
:103E2C00037A324A93BB9178407A63F30001917024
:103E3C00A17A6E468AB01070517002AAC2E90701CD
:103E4C000521DFF8ACC0C2E905C542F8101F4FF4DC
:103E5C0023512848FDF7F6F9B5460023C7F8093079
:103E6C00C7F80530FB60042322893B71A37A381D07
:103E7C00FD803A81BB72FFF779FDC4E71B4B9A7842
:103E8C006FF300029A701437BD46F0BD2A2B04D193
:103E9C00937843F001039370DFE791786FF300019F
:103EAC0091700121144A1348009502F080FAD4E76E
:103EBC006E468AB0017A437A02AAC2E90713052337
:103ECC000E48C2E9050542F8103F00234FF4235178
:103EDC000848FDF7B7F9054B227AB5461A70627A95
:103EEC0028465A70FFF742FF8DE700BFED550020C2
:103EFC00BD9E00008C7C0000E49E0000129F000020
:103F0C00A022024B002083F8E423704700E100E07C
:103F1C0070B169B1094B02689A420CD003604FF63C
:103F2C00FF7303810B68436000238372184670474C
:103F3C006FF00D0070474FF0FF307047DDCCBBAA1F
:103F4C0030B505460C4687B0002949D0002847D02B
:103F5C000A682B4B9A4243D182880B899A4204D12E
:103F6C008B7A13B1084602F002FF2B88112B3ED03E
:103F7C00512B0FD0012B33D12B7AAA88012B2FD1A7
:103F8C00218991422CD12046A37207B0BDE8304064
:103F9C0002F0EDBE1022002102A803F08EF90023DE
:103FAC00A888CDE900332389834219D1AB79022B40
:103FBC0016D1AA7B02F0FD01042913D18DF808302B
:103FCC004FF4C073ADF80C3002A902F0CCFE38B13E
:103FDC00002301908DF800306946204663689847AD
:103FEC0007B030BD052AFBD18DF80830ECE72389EA
:103FFC00AA889A4204BF4FF6FF732381F0E700BFF3
:10400C00DDCCBBAA70B50546054C064EB44200D3B8
:10401C0070BDD4E90031284698470834F6E700BF54
:10402C0054A400005CA40000F8B5154A154B6C466E
:10403C0000AF88B0012818BF134605466A461249DE
:10404C00C2E905134FF400739383104B42F8103FF1
:10405C0000234FF4E6510E48FDF7F4F80D4EA5463B
:10406C000D4CB44202D30020BD46F8BD2846D4E91D
:10407C000031984708B10834F3E76FF00F00F3E70D
:10408C005B9F0000549F0000639F00000300000131
:10409C00D47C000054A4000054A40000F8B56E4673
:1040AC0000AF8AB0154604466A46174BC2E907159D
:1040BC00C2E90530052342F8103F00234FF421518B
:1040CC001248FDF7BFF8012CB54604D041F20103AC
:1040DC009C4206D0FEE70E4A21460C4802F054F9E9
:1040EC00F8E701210B4A094802F04EF92DB90121DC
:1040FC00094A064802F048F9ECE701212B46074A29
:10410C00024802F04AF9E5E77C9F0000D47C0000ED
:10411C00A79F0000D19F000008A0000033A0000062
:10412C0073B501251C4E019533687BBB29461B4892
:10413C0002F042FE2846FFF777FF044648BB0146D3
:10414C00164802F039FE2046FFF75CFF144901A81F
:10415C0002F025FE034648B1124A2946124802F0E5
:10416C001CF96FF01504204602B070BD294630468C
:10417C0002F022FE21460D4802F01EFE4FF00052C6
:10418C000B4B1A602846FFF73DFFECE76FF0770406
:10419C00E9E76FF00F04E6E7704D0020684D002052
:1041AC00A94000006CA00000D47C00006C4D0020E5
:1041BC0000E100E038B5054C054DAC4200D338BDEC
:1041CC00D4E9003098470834F7E700BF5CA400003E
:1041DC006CA400002DE9F0411A4E1B4FDFF86C80E7
:1041EC008AB001A802F0F3FD48BB019B092B0FD14B
:1041FC00202102A800F044FC054690B902A802F068
:10420C00E4FD04462022294602A803F056F87CB9A6
:10421C000F4C4445E5D2D4E9003101989847083455
:10422C00F7E7012103460B4A074802F0B6F80B24C6
:10423C00012123463246384602F0AFF8E8E70AB0CF
:10424C00BDE8F081C5A00000D47C00006CA4000087
:10425C006CA400009FA0000008B5012200218A2058
:10426C00FDF7C8FD012200218520FDF7C3FD0122C9
:10427C000021E520FDF7BEFD002204214620FDF7BC
:10428C00B9FD0022042140F20510FDF7B3FD002218
:10429C0004214720FDF7AEFD04211C200022FDF770
:1042AC00A9FD8022064BDA774FF4B112054B1A6048
:1042BC0000F01AF8044B054A00201A6008BD00BF34
:1042CC0000ED00E0744D0020784D0020C14BF34709
:1042DC001E4A12681E498A4202D018474FF0080045
:1042EC001C490968095808474FF00000194909682A
:1042FC00095800B588475DF804EB7047164B4FF032
:10430C00040016490847164B4FF024001349084780
:10431C00144B4FF01C0011490847134B4FF0180079
:10432C000E490847114B4FF020000C490847104B21
:10433C004FF01400094908470E4B4FF01000074985
:10434C0008470D4B4FF00C0004490847784D0020EE
:10435C00C14BF347744D0020DF6D0000DD420000BF
:10436C00FB6D0000EF6D0000E36D0000E76D0000D9
:10437C00F36D0000F76D0000EB6D0000F7B534260F
:10438C000A4D0B4F28460DF10601ADF8066002F000
:10439C0034FD40B9074CBC42F4D2D4E90031284674
:1043AC0098470834F7E703B0F0BD00BF7C4D002000
:1043BC009CA400006CA40000002370B5434A86B096
:1043CC00CDE90223CDE9043363238DF80C300123AE
:1043DC008DF80E300323202003A9ADF8103002F025
:1043EC000AFD034620B10221394A3A4801F0D5FFB3
:1043FC000023CDF80E30CDF81230ADF8163040F267
:10440C0001134020314A03A9ADF80C3002F0F3FC43
:10441C00034620B10221304A2E4801F0BEFF002392
:10442C0001202A4A03A9CDE9033305938DF80C002A
:10443C0002F0E1FC034620B10221284A254801F094
:10444C00ACFF0023CDE904334FF4B063A2201F4A24
:10445C0003A9039302F0CFFC034620B10221204AAA
:10446C001C4801F09AFF0023A020184A03A9CDE9AB
:10447C000333059302F0BFFC034620B10221194A15
:10448C00144801F08AFF02A802F0B3FC029A0F4B09
:10449C0004469A4205D9012100920E48124A01F0B5
:1044AC0086FF84B101212346104A0A4801F075FFAA
:1044BC00204606B070BDD5E900310220984708357A
:1044CC00B542F8D3F4E70A4D0A4EF9E70044002050
:1044DC00F2A00000D47C000020A1000054A1000038
:1044EC0088A10000C1A10000FCA100003FA20000B7
:1044FC0054A400005CA4000010B50446FCF734FE84
:10450C0003480121034A01F03FFF204602F07BFCE7
:10451C00DC7C000063A200002DE9F04104460D464E
:10452C0000AFEFF31186402383F31288BFF36F8F34
:10453C00042898BF184B194AE8468AB0117C98BFDA
:10454C0053F820306A4688BF154BC2E9073140F258
:10455C00013314489384144BC2E9050442F8103F0C
:10456C0000234FF431511148FCF76CFEC54645B1A0
:10457C00EB69C3F3080323B101210D4A0B4801F089
:10458C0003FF29462046FFF7B7FF86F31188BFF3D8
:10459C006F8FBD46BDE8F081307E0000B04D00202D
:1045AC0072A2000080A2000005000001DC7C00006B
:1045BC00A8A2000038B50A4B53F82040013053F83C
:1045CC002050A54200D838BD606830B1037FDB07AE
:1045DC0001D402F020FC0834F3E723689847FAE78B
:1045EC00447E0000012208B5094B03201A70FFF726
:1045FC00E1FFFCF749FCFDF787F80420FFF7DAFF31
:10460C00FCF7F8F8034A137B23F00103137308BD7E
:10461C00F05500207849002008B50348034A0021D2
:10462C00121A02F00FFC08BD28450020F45500209A
:10463C0008B50020FFF7BEFF1A4B03F5006282F3AA
:10464C00088883F30A88E023174C002584F822306D
:10465C002023E37725766576A57684F82050636A67
:10466C0043F4E023636284F82350FDF71FFBFDF74E
:10467C001BFC4FF0FF33A362E362FDF751FDFDF726
:10468C003BFCFCF7CFFC02F022FC0120FFF792FF71
:10469C000220FFF78FFF2B462A4629460348FDF7D9
:1046AC00E5FB00BFF855002000ED00E0F1450000EF
:1046BC00074808B5074A0849121A02F0C5FBBDE8BD
:1046CC0008400648064A0749121A02F0BDBB00BF53
:1046DC0000440020284500202CA3000000440020AA
:1046EC00004400202CA30000024B1868984208BF1D
:1046FC0000207047B8440020034B1B680BB9FDF732
:10470C008DBE0020704700BFD04D002030B570B179
:10471C000B4B5B6898420AD0036843B1D3E9042180
:10472C00D0E90445121941EB0501C3E90421D0E994
:10473C00003213605A600023C0E9003330BD00BF63
:10474C00B8440020B3F1FF3F08BFB2F1FF3F2DE9A1
:10475C00F84F0446994615461F467BD08160EFF30F
:10476C001188402383F31288BFF36F8F013279F1E4
:10477C00FF33DFF8E8A020DBFFF7BEFFDAE9002704
:10478C00013549F100092D1849EBE07306464FF04D
:10479C000109C4E90453AD1843EB0707FFF7A4FF65
:1047AC000346DFF8BCE0DEF804A0EBB9C4E900EA8C
:1047BC00CAF80040CEF8044028E06FF00103DAE9B3
:1047CC0000125B1A4FF0FF3161EB02025B1B62EBD4
:1047DC000902012B72F10001BCBF012300224FF032
:1047EC000009C0E90432D9E7D3E9041CD4E9042058
:1047FC008A4270EB0C0B24DA891A5A686CEB0000B5
:10480C00C3E90410C4E9003214605C60FFF76CFF6C
:10481C0084420ED1134B1B685BB9B9F1000F02D166
:10482C00FFF76AFF0646304602F010FB0021FDF749
:10483C0005FE88F31188BFF36F8F28463946BDE813
:10484C00F88F521A60EB0C009A45C4E90420ADD0E5
:10485C001B68AAE700252F46EFE700BFF8490020A8
:10486C00B8440020D04D00202DE9F047EFF311851E
:10487C00402383F31288BFF36F8FDFF89C900026E0
:10488C00C9F800000027FFF72FFFDFF89080D9F858
:10489C000030D8E900ECD91750B1D0E90442A3425A
:1048AC0071EB020A19DAE41A62EB0102C0E9044264
:1048BC00002413EB0E034CEB01012046C8E9003138
:1048CC00C9F8004002F0C2FA2146FDF7B7FD85F3A6
:1048DC001188BFF36F8FBDE8F08714EB0E024CEB21
:1048EC00E473C0E90467C8E90023FFF70FFF85F301
:1048FC001188BFF36F8F83689847EFF311854023BE
:10490C0083F31288BFF36F8FD9F800301B1BC9F8E3
:10491C000030FFF7E9FEBAE7D04D0020F84900203F
:10492C0010B5EFF31184402383F31288BFF36F8F1C
:10493C00FFF7E2FE0346054AD2E90001181841EBE5
:10494C00E37184F31188BFF36F8F10BDF849002019
:10495C00F8B50646EFF31187402383F31288BFF3B3
:10496C006F8F026822B187F31188BFF36F8FF8BD88
:10497C00D0E90A35581C45F10001022871F10001FB
:10498C0027D3012B75F10001BCBF012315465C1E1A
:10499C0045F1FF3502F099FA013041F1000100199F
:1049AC0045EB0101012871F1000127DB02F08DFAC2
:1049BC00013041F100016FF00102001945EB0103D8
:1049CC004FF0FF31121A61EB030330460E49FFF72B
:1049DC00B9FE336B01333363336A002BC3D087F3D7
:1049EC001188BFF36F8F3046336A9847EFF3118706
:1049FC00402383F31288BFF36F8FB4E76FF001028B
:104A0C004FF0FF33E1E700BF5D4900002DE9F041B5
:104A1C0005461C4690461F46EFF31186402383F350
:104A2C001288BFF36F8FB4F1FF3F08BFB2F1FF3FA5
:104A3C0005D186F31188BFF36F8FBDE8F081531C4D
:104A4C0074F1FF3309DB012A74F10003BCBF0122AE
:104A5C00002412F1FF3844F1FF37284602F00DFA1A
:104A6C00DDE906010023C5E90A012B6342463B46FA
:104A7C0028460249FFF766FEDBE700BF5D490000F0
:104A8C00074B0A465978022906D11978072903D110
:104A9C000146181D02F04ABA6FF08800704700BF3B
:104AAC00D44D002010B5124C2378590744BF23F085
:104ABC000403237023789A0705D500F063F8237854
:104ACC0023F002032370637813B10A4802F031FA21
:104ADC00002304210748637000F074F82378DB0787
:104AEC0005D502F01FFA237823F00103237010BDC3
:104AFC00D44D0020D84D002038B51C4D6A782B7849
:104B0C00022A01D1072B12D0D80713D52B7899077D
:104B1C0007D400F02FF82B78044643F002032B70D7
:104B2C0088B96A782B788AB12B785A0719D5002462
:104B3C00204638BD02F0F4F92B78044643F001030B
:104B4C002B700028E2D0FFF7ADFFF1E7DB07EBD5C8
:104B5C00074802F0E8F9022304466B700028F2D1F2
:104B6C00E2E743F004032B70E1E700BFD44D0020D3
:104B7C00D84D00200122024B002083F8802570477D
:104B8C00DC4D00202DE9F0410A4C002526464FF063
:104B9C00010803272046C4F820802777013502F04E
:104BAC00A2F9202D04F12C04F4D1002386F88035D1
:104BBC00BDE8F081DC4D0020014B1B68184700BF9D
:104BCC00C044002010B50A46044619B1024B00211E
:104BDC001B68984710BD00BFC444002010B50C4C96
:104BEC00207802F042FB0B4A1368591C11604BB938
:104BFC00094A4820D2F8003443F00703C2F80034C5
:104C0C00FDF7D6F82078BDE8104002F030BB00BFAD
:104C1C00F1550020605300200080045038B5164D2B
:104C2C00287802F022FB154B1C68013C1C60ECB987
:104C3C004820FDF7CBF80722114BC3F80823D3F813
:104C4C00002422F00702C3F80024C3F80041D3F873
:104C5C000021C3F80441D3F804214FF48072C3F847
:104C6C000841D3F80831074BC3F888212878BDE8F0
:104C7C00384002F0FCBA00BFF15500206053002010
:104C8C000080045000E100E070B5114D114E2B680E
:104C9C00B3421BD0FFF7A2FF00F0D6FC0E4A0F4B1D
:104CAC000F4952F8040B43F8040B8B42F9D100F076
:104CBC0009FD40B102F04BF90446FFF7AFFF04B910
:104CCC002E60204670BD00F0D1FAF5E70024F8E71D
:104CDC00C8440020117365005C7E000000C0805148
:104CEC001CD380514FF480732DE9F04796B0804669
:104CFC0003A80393002402F0B6F94FF010091E4EDE
:104D0C000DF12F0525F01F0506F1200A01221021B7
:104D1C001A4802F087F92B190093524610232021D0
:104D2C001548CDF8049000F0DFFA0746F8B9D6E93B
:104D3C000C321034013342F10002302CC6E90C3233
:104D4C00E4D1B8F1000F04D022464146284602F0C7
:104D5C005CF92E46084C0FCE0FC496E80F00203598
:104D6C0084E80F0095E80F00103484E80F003846F3
:104D7C0016B0BDE8F08700BF004A0020204A002092
:104D8C00F0B5194D194FAB6B8DB0BB4229D0184EF5
:104D9C00307802F06AFA402300221946284602F0C5
:104DAC004BF93021684602F06BF9044678B9684635
:104DBC00FFF798FF044690B930230246194668461F
:104DCC0002F03AF901220023C5E90C23AF633078D5
:104DDC0002F04DFA204602F0BAF80DB0F0BD0E24E8
:104DEC00F5E70020F9E700BF004A0020B4A5B4A500
:104DFC00F25500202DE9F04F99B00DF1570802F152
:104E0C000F0982460E46144628F01F084FEA19195E
:104E1C0022B100296DD0B2F5803F6AD8364F374D9C
:104E2C00387802F022FAD5E90C3213430BD15046F4
:104E3C00FFF7A6FF834630B1387802F018FA5846CF
:104E4C0019B0BDE8F08FD5E90C2319EB020243F140
:104E5C000003B3F5803F14D3302102A802F010F9FF
:104E6C00E8B902A8FFF73EFF83460028E4D13023BF
:104E7C000246194602A802F0DFF800220023C5E919
:104E8C000C234FF4807302A8029302F0ECF8DFF8C5
:104E9C0070A03CB92046FFF725FF8346CCE76FF0A6
:104EAC00920BC9E7102C4FF001024FF01001504645
:104EBC00A14628BF4FF0100902F0B4F81023524657
:104ECC002021CDE900830D4800F00EFA834600281E
:104EDC00B2D14A463046414602F0E2F9D5E90C32ED
:104EEC00013342F10002C5E90C32A4EB09044E4433
:104EFC00CFE76FF0860BA2E7F2550020004A0020A6
:104F0C00204A00200022074BC3F81021C3F80C21C3
:104F1C00C3F80021C3F80421C3F80821C3F81421F5
:104F2C00704700BF0050045008B5FFF7EBFF01239A
:104F3C000360104B0A6832B9D3F80C211AB9D3F8B4
:104F4C000821002AF6D00B687BB90B4B99420ED086
:104F5C00A3F58473D3F80831002B0CBF4FF0FF304E
:104F6C006FF00200FFF7CEFF08BD0020FAE74FF00C
:104F7C00FF30F7E7005004500851045038B505468F
:104F8C000C4691B10021012001F0C9FB08480949E8
:104F9C00C0F80055C0F80445FFF7C6FF00210446D1
:104FAC00084601F0BCFB204638BD6FF00104FAE75F
:104FBC00005004500051045010B50446002101204B
:104FCC0001F0ADFB064B0749C3F800450648FFF757
:104FDC00ABFF00210446084601F0A1FB204610BDA2
:104FEC0000500450085104500850045038B50C4679
:104FFC0059B1074D0749C5F800050748FFF794FF5D
:10500C0010B9D5F80835236038BD6FF00100FBE707
:10501C0000500450105104500C5004502DE9F04F26
:10502C0089B006460F4690461D4602F07FF80446AE
:10503C0078B973690090C3F3013262F305148DF8EB
:10504C00004014F0300408D1B168890710D06FF01B
:10505C008604204609B0BDE8F08F102C08D1BDF8AD
:10506C00023023F4F87343F4A873ADF802304EE029
:10507C00DBB2F82B02D06FF08504EAE700234FF087
:10508C00010B9E4619461846D6F808C0DFF8CC919D
:10509C0059F804AB1CEA0A0F08D00BFA00F343EAE8
:1050AC000E0303F07F0E012341EA0A0101300728A9
:1050BC00EED12BB19DF803306EF347038DF803301E
:1050CC003CEA0101D7D17388FF2B35D005D8802B52
:1050DC0034D0C02BCFD1022303E0B3F5807FCAD1EB
:1050EC0004239DF8021063F306118DF8021014B915
:1050FC001CF0030FABD13379022B2BD020D8012B12
:10510C00A5D1BDF8021063F3C811ADF80210012A45
:10511C006FD0032A23D0002A99D13388B3F5105FBE
:10512C00A9D1182D6DD0202D70D0102D8FD1DFF876
:10513C0030A101251F261AE00323D2E70123D0E773
:10514C00032B01D0FF2B82D10221BDF8023061F379
:10515C00C8138AE7BDF8023043F4C07385E7412DCC
:10516C003DD104254F26DFF8FCA008F101080024EE
:10517C00381901F0AFFF00286CD00134AC42F7D1E4
:10518C001F2E07D02946384601F0B8FF04460028E8
:10519C007FF45FAF009B4FF0FF39079300239B46D2
:1051AC00CDF818A0BDF802204344C2F3C1120592F9
:1051BC0001AC03F1100C224618685968083303C27D
:1051CC0063451446F7D101A907EB0B00FFF7D6FE98
:1051DC00044630B301F0AAFF6FF0920439E7182DA2
:1051EC0019D0202D1AD0102D7FF431AFDFF874A018
:1051FC009FE7302D7FF42BAF03253F26DFF868A007
:10520C00B5E7DFF85CA002252726B0E7DFF850A051
:10521C0002252F26ABE7DFF84CA0F4E7DFF844A01B
:10522C00F6E71C2101A80BF1010B01F010FFAB45B7
:10523C0006D00AEB0B12CDE906294FEA0B13B1E7A6
:10524C001F2E3FF406AFBA20FFF7B6FE00283FF43E
:10525C0000AFC1E76FF08A04FBE600BF7891000055
:10526C0040008151000000201084045010B590B013
:10527C001C22002101A802F020F8F82001F02AFFDE
:10528C0008B3202200200DEB0201FFF7B3FD04460A
:10529C00F8B901A84FF4807101F026FF0E4B0F49AD
:1052AC0004930F4BCDE901130E4BF82106932023E9
:1052BC000DEB0302FFF7B2FE202104460DEB0100BB
:1052CC0001F0C5FE05E0F92001F004FF0028D8D15B
:1052DC000446204610B010BD0010C004002400018C
:1052EC00014B4E80F800FF7F10B543F0005392B095
:1052FC00109321234FF480740E9201221193149B6E
:10530C0001940293159B01AC41F0005106940C9151
:10531C00112440F6110143F00053CDE9032320235F
:10532C00DFF864C00A90CDE908C40D9100200EA9E5
:10533C000AAC07940B910F92059300F00FF9BFF391
:10534C005F8F4FF0A34306AA1A60BFF35F8FBFF3C2
:10535C005F8F02AA1A61BFF35F8FBFF35F8F0322C7
:10536C005A63BFF35F8FBFF35F8F9A63BFF35F8F97
:10537C0001F020FF431C0446FAD0002000F018F97D
:10538C00204612B010BD00BF04000020BFF35F8F99
:10539C00094A1368BFF35F8F43F48071BFF35F8FCB
:1053AC001160BFF35F8F23F48073BFF35F8F1360C3
:1053BC00BFF35F8F704700BF0010805108B5FFF737
:1053CC00E5FFBFF35F8F064A1368BFF35F8F43F0AF
:1053DC000103BFF35F8F1360BFF35F8F08BD00BF86
:1053EC000010805170B50026C0E9006605460C46D9
:1053FC00FFF7F4FB01232B70FFF7C8FFBFF35F8FA0
:10540C00204BDB68BFF35F8F9B08013BACB322687A
:10541C0042B19A4205D9FFF701FC6FF03F002E70A4
:10542C0070BD1346D4E90115E068002908BF4FF49C
:10543C000071002808BFF1202469BFF35F8F114A67
:10544C009360BFF35F8FBFF35F8F1564BFF35F8F04
:10545C00BFF35F8F5064BFF35F8FBFF35F8F5163F8
:10546C00BFF35F8F44F4802444F00104BFF35F8FDB
:10547C001460BFF35F8F0020D2E74FF40071F1206E
:10548C002546DAE70010805170B503780D461446B6
:10549C00002B53D0BFF35F8F2D4A136BBFF35F8F7D
:1054AC005908C3F34203052B4BD011F0060F02D160
:1054BC004FF0FF3070BD4368D3B9BFF35F8F5368B3
:1054CC00BFF35F8F032BF3D9224B2349BFF35F8FBD
:1054DC00D2F88060BFF35F8FBFF35F8F43F8046B2C
:1054EC00BFF35F8F8B42F1D1FFF768FF012343605D
:1054FC00BFF35F8F164B9A68BFF35F8F0132B4EB2B
:10550C00021F21D8BFF35F8F5A68BFF35F8FB4EBD4
:10551C00820FCDD884B1BFF35F8FD3F88020BFF357
:10552C005F8F291D05F8012B8D424FEA122204F1E1
:10553C00FF34EFD0002CF5D10020BBE76FF020003A
:10554C00B8E76FF05100B5E76FF03F00B2E700BF6E
:10555C0000108051101080512010805110B504465D
:10556C00FFF73CFB104B187801F07FFE0CB10123C8
:10557C002370BFF35F8F4FF0A3430022DA61BFF3B8
:10558C005F8FBFF35F8F4FF0FF321A63BFF35F8FF4
:10559C00BFF35F8F3422DA61BFF35F8F0122034BBD
:1055AC00C3F8042310BD00BFF35500200080045045
:1055BC0010B5044638B9FFF731FBBDE81040074B76
:1055CC00187801F054BE03783BB1FFF727FB034B6F
:1055DC00187801F04CFE0023237010BDF355002009
:1055EC0038B5164CD4F80051C5B1BFF35F8F4FF0EE
:1055FC00A343996ABFF35F8FBFF35F8F4FF0FF3206
:10560C001A63BFF35F8F0023C4F80031D4F8003164
:10561C000B4B1868BDE8384001F03BBED4F808319C
:10562C0053B100F06DF801F0F6FDC4F80851D4F850
:10563C0008310121034BECE738BD00BF008004505A
:10564C00D0440020CC44002008B5074B186801F06A
:10565C0010FE064B186801F00CFEBDE80840002255
:10566C0048201146FCF7C6BBD0440020CC44002097
:10567C0038B5094B1C7864B1084B4FF0FF311D68ED
:10568C00284601F0F9FD4FF0FF310446284601F0A1
:10569C00FBFD204638BD00BFF0550020D044002053
:1056AC0010B5064C236D3BB9214651F8503B986917
:1056BC0001F0B5FD01232365014810BD6C5300209A
:1056CC00BC53002038B500240B4D0C4BEC662B6002
:1056DC0003F5C0436B60FFF7E3FF50B16B6D2046E1
:1056EC00B3F5007FCCBF4FF480634FF40073AB6015
:1056FC0038BD0E20FCE700BF6C5300200020805109
:10570C00004870476C5300200CB430B589B0054686
:10571C000C461C22002101A801F0CFFD02230595A7
:10572C008DF806300D4B029323462CB1B4F1004F8B
:10573C0028BF4FF00043013B1D440DAA0C9901A852
:10574C000695009200F00CF814B1059B00221A701B
:10575C0009B0BDE8304002B0704700BF9B73000039
:10576C002DE9F04F43688DB015468046029383783F
:10577C009A0740F10D8100240E78002E00F00A816A
:10578C00252E0BD04B1C0393013441463046029B13
:10579C0098470028C0F2F6800399EDE74E788B1CF1
:1057AC00252E0393F0D00027B946BB46BBF11F0F43
:1057BC0038D8A6F12003102B0AD8DFE803F02A0909
:1057CC0009300909092109090928092D09091F00AE
:1057DC00A6F13003092B33D92A2E37D11BF0400FF9
:1057EC0055F8043B40F08280002BA7BF4BF0200BF8
:1057FC009946C3F100094BF0280B01E04BF0010B6B
:10580C00039B13F8016B0393002ECFD130E04BF0C8
:10581C00020B4BF0040BF3E74BF0080BF0E74BF0EB
:10582C00100BEDE7BBF17F0F19D8A6F13003092B54
:10583C00D2D81BF0400F03D00A2101FB0737DFE75A
:10584C000A214BF0200B01FB0939D9E72E2E06D18A
:10585C001BF0400F40F09E804BF0400BD0E76C2EBD
:10586C0031D02BD8682E36D06A2E3CD04C2E3AD064
:10587C00002F46F02003B8BF2BF04002A3F16501C6
:10588C00BCBF00271FFA82FB022901D9612B2FD143
:10589C0007350727DFF8ACA225F0070508351BF004
:1058AC00080F66D00AEB070B56465E4563D1A4EB96
:1058BC000A0AA9EB070906EB0A026FE1742E9FD0C6
:1058CC007A2E9DD0D4E71BF0800F18BF4BF4007BD1
:1058DC004BF0800B94E71BF4807F18BF4BF4007BDC
:1058EC004BF4807B8CE74BF4207B89E71F4687E7E2
:1058FC00A6F16301122900F2F080DFE811F0130029
:10590C004F00EE00EE00EE00EE004F00EE00EE0059
:10591C00EE00EE00EE00FE00E900EE00EE001B00D3
:10592C00EE00AF0055F8043B01270DF1180A8DF875
:10593C001830B4E755F804AB834BBAF1000F08BF2D
:10594C009A461BF0400F504614BF39464FF0FF31BA
:10595C0001F0BBFC0746A2E741462020029B98477A
:10596C0000280FDB013EB742F6D34C44B146A41BD2
:10597C0098E74E46F7E7414616F8010B029B98470D
:10598C00002892DA98F8023043F0040388F80230C9
:10599C004FF0FF3420460DB0BDE8F08F1BF0800FA8
:1059AC0034D01BF4007F2CD0073525F00705AA4610
:1059BC0069685AF8080B2BF010050029ADB237DADC
:1059CC00404245F4806561EB41010DF1180B0A234F
:1059DC005A4601F086FCA0EB0B0301936B0662D5D3
:1059EC00019B25F001019F4289B240F3A180002E5A
:1059FC0000F0998015F0100240F09C80BB460D46DB
:105A0C0023E0AA465AF8040BC117D4E7AA461BF4A4
:105A1C00807F5AF8041B01D10846F5E71BF4007F80
:105A2C0019BF48B241F3C01108B241F3C031C2E70B
:105A3C0050EA0103C9D11BF0400FC6D0002FC4D1CE
:105A4C002BF01102BB46019795B240F2064115EAC4
:105A5C0001021CBF0BF1010B00222CE02BF01002F9
:105A6C000A231FFA82FB1BF0800C49D01BF4007137
:105A7C0015BF0735AA4625F007055AF8040B1EBFBB
:105A8C00AA4669685AF8080B50EA010545D12BF073
:105A9C0016051BF0400FADB242D0002F40D12BF0B9
:105AAC001702019795B215F0100248D0019B002EF9
:105ABC0042D103F1010B29075AD4EB0706D5D9457E
:105ACC006FDDA9EB0B030199CB465F185B4649E0F0
